:020000020000FC
:0200000024C01A
:1000080000C09F939FB7413009F429F09FBF9F918B
:100018002F913F9104C09FBF9F910F911F919F9374
:100028009FB743954170413009F429F09FBF9F91D4
:100038003F932F9305C09FBF9F911F930F9300C0BD
:10004800189509E00EBD00E00BBD04E60ABD00E40A
:1000580009BF0EE107BB0FEF01BB0FE302BB44274B
:1000680017E400E090E1A92E98E0B92E992750E016
:1000780064EB70E08AE578949A2598BBA52FB62F93
:100088001197F1F7F9CF9B2598BBC72FD82F219748
:10009800F1F7F9CF6F937F938F939F9328EE33E017
:1000A80013D0922F24E630E00FD0822F2AE030E0E0
:1000B8000BD0722F602F062F172F282F392F9F91C3
:1000C8008F917F916F9108958F939F938827992798
:1000D8000217130720F0021B130B0196F9CF282FE4
:1000E800392F9F918F9108953F065B4F666D7D076D
:1000F800FF6FEF93FF93E0EFF0E0E00F0027F01FB2
:100108000491FF91EF9108958F939F93802F912FE2
:1001180005D00197E9F79F918F9108958F939F9349
:0E01280080ED97E00197F1F79F918F91089578
:00000001FF
