:020000020000FC
:0200000035C009
:0200080014C022
:1000160000C02F933F934F934FB721E030E0020E7D
:10002600131E4FBF4F913F912F9118950F931F931A
:100036002F933F934F934FB7002D112D169507958C
:100046007BD0602F712F822F932F002411244FBF56
:100056004F913F912F911F910F9118953F065B4F3E
:10006600666D7D07FF6F1CE01EBD10E01FBD1AE721
:100076001BBD11E11ABD10EC19BF10E21BBF1ABF60
:1000860011E010BD78940024112440E347BB4FEFE4
:1000960041BB00E010E050D0602F712F822F932FCC
:1000A60005E010E0CC27DD270F934F93062F25D0D0
:1000B60002BB42E048BB4F910F9158D00F934F932C
:1000C600072F1BD002BB44E048BB4F910F914ED087
:1000D6000F934F93082F11D002BB48E048BB4F91B6
:1000E6000F9144D00F934F93092F07D002BB40E1E5
:1000F60048BB4F910F913AD0D7CFEF93FF934F93D1
:100106004427E2E6F0E0E00FF41F04914F91FF91DF
:10011600EF9108958F939F938827992702171307C6
:1001260030F0021B130B019602171307D0F7392F75
:10013600282F9F918F9108956F937F938F939F930D
:1001460028EE33E0E7DF622F24E630E0E3DF722FAC
:100156002AE030E0DFDF822F902F062F172F282F7F
:10016600392F9F918F917F916F910895BF93AF9390
:10017600B12FA02F05D01197E9F7AF91BF91089540
:10018600AF93BF93B5E0A2E31197000009F0FCCF4F
:06019600BF91AF91089536
:00000001FF
